:100000000C947A000C9405040C9476030C9405046B
:100010000C9405040C9405040C9405040C9405043C
:100020000C9405040C9405040C9405040C9405042C
:100030000C9405040C9405040C9405040C9405041C
:100040000C9405040C9405040C9405040C9405040C
:100050000C9405040C9405040C9405040C940504FC
:100060000C9405040C9405040C9405040C940504EC
:100070000C9405040C9405040C9405040C940504DC
:100080000C9405040C9405040C9405040C940504CC
:100090000C9405040C9405040C9405040C940504BC
:1000A0000C9405040C9405040C9405040C940504AC
:1000B0000C9405040C9405040C9405040C9405049C
:1000C0000C9405040C9405040C9405040C9405048C
:1000D0000C9405040C9405040C9405040C9405047C
:1000E0000C9405040C9405040C9405040C9405046C
:1000F0000C94050411241FBECFEFCDBFDFE7DEBF98
:10010000E4EFF0E040E019C0B791A7913791279153
:10011000079107FD0EC097918791EF01F92FE82F06
:100120000BBF07900D92A217B307D9F7FE011BBEB4
:1001300004C01D92A217B307E1F7E43FF40721F7CB
:0C0140000E94B0030C94A400F894FFCFC0
:10014C000F931F93CF93DF930E94220240E054E061
:10015C00FA01108220E234E0F901108280E494E08C
:10016C00FC011082C0E6D4E064E46883A0E8B4E04B
:10017C001C9200EA14E0F8011082FA011482F901D1
:10018C001482FC0114821C8214961C921497F801A0
:10019C001482FA01108A118A128A138A148A158A17
:1001AC00168A178AF901108A118A128A138A148AFC
:1001BC00158A168A178AFC01108A118A128A138AE8
:1001CC00148A158A168A178A188A64E0698B6A8BD6
:1001DC006B8B6C8B1D8A6E8B6F8B50961C92509711
:1001EC0051966C93519752961C92529753966C93CE
:1001FC00539754961C92549755961C925597569615
:10020C001C92569757961C925797F801108A118A90
:10021C00128A138A148A158A168A178AFA01138687
:10022C00168615861486F90113861686158614868D
:10023C00FC0113861686158614861B861E861D8663
:10024C001C861B961C921B971E961C921E971D9625
:10025C001C921D971C961C92F80113861686158607
:10026C001486E0EEF5E0118611821082148216825B
:10027C00178210861582128213821286DF91CF911B
:06028C001F910F9108957F
:1002920010C00E94D00358F00E94C90340F029F414
:1002A2005F3F29F00C94EA0351110C94D8030C948B
:1002B20002040E94140368F39923B1F3552391F3C6
:1002C200951B550BBB27AA2762177307840738F0C3
:1002D2009F5F5F4F220F331F441FAA1FA9F335D020
:1002E2000E2E3AF0E0E832D091505040E695001CD4
:1002F200CAF72BD0FE2F29D0660F771F881FBB1F8E
:10030200261737074807AB07B0E809F0BB0B802D6B
:10031200BF01FF2793585F4F3AF09E3F510578F097
:100322000C94EA030C94D8035F3FE4F3983ED4F3B1
:10033200869577956795B795F7959F5FC9F7880F6B
:10034200911D9695879597F90895E1E0660F771FBD
:10035200881FBB1F621773078407BA0720F0621B4E
:0E036200730B840BBA0BEE1F88F7E09508951D
:100370000FC00E94C90338F00E94D00320F09523DB
:1003800011F00C94EA030C94020411240C94D80389
:100390000E94140370F3959FC1F3950F50E0551F11
:1003A000629FF001729FBB27F00DB11D639FAA27CA
:1003B000F00DB11DAA1F649F6627B00DA11D661F19
:1003C000829F2227B00DA11D621F739FB00DA11D3A
:1003D000621F839FA00D611D221F749F3327A00DF4
:1003E000611D231F849F600D211D822F762F6A2F90
:1003F00011249F5750409AF0F1F088234AF0EE0FF5
:10040000FF1FBB1F661F771F881F91505040A9F721
:100410009E3F510580F00C94EA030C94D8035F3F93
:10042000E4F3983ED4F3869577956795B795F7955D
:10043000E7959F5FC1F7FE2B880F911D96958795D5
:0404400097F908958B
:10044400E0E9F4E0808188608193E83984E0F8078A
:10045400C9F7E0EBF4E0808188608193E83B84E0B5
:10046400F807C9F7E0E1F4E0808188608193E8311E
:1004740084E0F807C9F7E0E3F4E0808188608193C1
:10048400E83384E0F807C9F7E0E5F4E080818860A8
:100494008193E83584E0F807C9F7E0E7F4E0808168
:0E04A40088608193E83784E0F807C9F708956F
:1004B200CF92DF92EF92FF926B017C0120E030E05D
:1004C20040E850E40E94F503181634F4C12CD12CF4
:1004D20076016894E7F8F6F820E030E040EA50E46C
:1004E200C701B6010E94FA0320E030EC4FE754E462
:1004F2000E94FE030E94C10200247695679507942C
:10050200769567950794762F602D6093A206709377
:0C051200A306FF90EF90DF90CF900895BB
:10051E0040E068ED88E790E00E94F00340E068ED6F
:10052E008CE790E00E94F00340E068ED81E690E0F9
:10053E000E94F00340E068ED82E690E00E94F00336
:10054E0040E068ED83E690E00E94F00340E068ED45
:10055E0080E690E00E94F00340E068ED85E690E0D2
:10056E000E94F0034CE068ED88E690E00E94F003F4
:04057E0080E008957C
:100582000E941C0388F09F5798F0B92F9927B75102
:10059200B0F0E1F0660F771F881F991F1AF0BA9525
:1005A200C9F714C0B13091F00E94D703B1E00895A9
:1005B2000C94D703672F782F8827B85F39F0B93F9B
:1005C200CCF3869577956795B395D9F73EF49095D8
:0E05D2008095709561957F4F8F4F9F4F0895D4
:1005E000990F0008550FAA0BE0E8FEEF1616170644
:1005F000E807F907C0F012161306E407F50798F0AC
:10060000621B730B840B950B39F40A2661F0232BC4
:10061000242B252B21F408950A2609F4A140A69540
:080620008FEF811D811D08957B
:1006280057FD9058440F551F59F05F3F71F047959B
:10063800880F97FB991F61F09F3F79F08795089580
:10064800121613061406551FF2CF4695F1DF08C09F
:10065800161617061806991FF1CF869571056105BC
:040668000894089555
:10066C000E94E403E0E0F7E083E0828311821786C6
:10067C0082E2838B86E1828B85E0808B8FE7848B93
:10068C00138E128E92E0908F848F13A212A290A3DD
:08069C0084A30E94DE0308950F
:1006A4000E94A6000E9491030E94C1030E948F022F
:1006B4000E94B9030E9436030E94A7030E949D036F
:0606C4000E948503089569
:1006CA00092E0394000C11F4882352F0BB0F40F456
:1006DA00BF2B11F460FF04C06F5F7F4F8F4F9F4F96
:0206EA00089571
:1006EC001F920F920FB60F9211248F9381E080937B
:0E06FC00AA008F910F900FBE0F901F901895BF
:10070A0040E068ED80E191E00E94F003E0E1F1E071
:08071A001282138280E00895B1
:1007220040E068ED80EA90E00E94F003E0EAF0E049
:080732001186108680E0089595
:10073A00E0EAF6E081EC808380E89AE282839383A0
:04074A0080E00895AE
:10074E00E0EBF0E0148285E0808380E8828380E035
:02075E000895FC
:100760000E94520366E676E686EE9FE30E945902F7
:02077000FFCFB9
:1007720040E068ED80E590E00E94F00380E008959B
:1007820040E068ED80E091E00E94F00380E008958F
:0E07920000240A941616170618060906089584
:0E07A00000240A941216130614060506089586
:0E07AE00E894BB2766277727CB0197F90895BB
:0C07BC00E0E0F7E0808181608083089518
:0C07C800E0E0F7E080818E7F80830895E0
:0C07D40097F99F6780E870E060E00895EE
:0A07E0001BBEFC0164BF40830895B6
:0A07EA000E94F00208F48FEF08955A
:0807F4000E9449010C94650309
:0807FC000E94B8010C94650392
:060804009FEF80EC089557
:04080A000C9400004A
:02000004008278
:090000000000000000C00800002F
:00000001FF
