:100000000C947D000C94A1020C943D020C94A1026E
:100010000C94A1020C94A1020C94A1020C94A102D4
:100020000C94A1020C94A1020C94A1020C94A102C4
:100030000C94A1020C94A1020C94A1020C94A102B4
:100040000C94A1020C94A1020C94A1020C94A102A4
:100050000C94A1020C94A1020C94A1020C94A10294
:100060000C94A1020C94A1020C944C020C94B401C7
:100070000C94A1020C94A1020C94A1020C94A10274
:100080000C94A1020C94A1020C94A1020C94A10264
:100090000C94A1020C94A1020C94A1020C94A10254
:1000A0000C94A1020C94A1020C94A1020C94A10244
:1000B0000C94A1020C94A1020C94A1020C94A10234
:1000C0000C94A1020C94A1020C94A1020C94A10224
:1000D0000C94A1020C94A1020C94A1020C94A10214
:1000E0000C94A1020C94A1020C94A1020C94A10204
:1000F0000C94A10240004002800011241FBECFEFEB
:10010000CDBFDFE7DEBFE4EFF0E040E019C0B7911C
:10011000A79137912791079107FD0EC0979187917D
:10012000EF01F92FE82F0BBF07900D92A217B3072D
:10013000D9F7FE011BBE04C01D92A217B307E1F759
:10014000E93FF40721F70E949C020C94A700F89461
:02015000FFCFDF
:100152000F931F93CF93DF930E944B0140E054E033
:10016200FA01108220E234E0F901108280E494E086
:10017200FC011082C0E6D4E064E06883A0E8B4E049
:100182001C9200EA14E0F8011082FA011482F901CB
:100192001482FC0114821C8214961C921497F8019A
:1001A2001482FA01108A118A128A138A148A158A11
:1001B200168A178AF901108A118A128A138A148AF6
:1001C200158A168A178AFC01108A118A128A138AE2
:1001D200148A158A168A178A188A698B6A8B6B8B1E
:1001E2006C8B1D8A1E8A6F8B50961C92509751966B
:1001F2006C93519752961C92529753966C935397C5
:1002020054961C92549755961C92559756961C924A
:10021200569757961C925797F801108A118A128A9C
:10022200138A148A158A168A178AFA011386168681
:1002320015861486F9011386168615861486FC0126
:1002420013861686158614861B861E861D861C86B8
:100252001B961C921B971E961C921E971D961C9213
:100262001D971C961C92F801138616861586148615
:10027200E0EEF5E011861182108214821682178256
:1002820010861582128213821286DF91CF911F91FE
:040292000F9108952B
:10029600E0E9F4E0808188608193E83984E0F8073A
:1002A600C9F7E0EBF4E0808188608193E83B84E065
:1002B600F807C9F7E0E1F4E0808188608193E831CE
:1002C60084E0F807C9F7E0E3F4E080818860819371
:1002D600E83384E0F807C9F7E0E5F4E08081886058
:1002E6008193E83584E0F807C9F7E0E7F4E0808118
:0E02F60088608193E83784E0F807C9F708951F
:1003040040E068ED88E790E00E94970240E068EDE5
:100314008CE790E00E94970240E068ED81E690E06F
:100324000E94970240E068ED82E690E00E94970206
:1003340040E068ED83E690E00E94970240E068EDBB
:1003440080E690E00E94970240E068ED85E690E048
:100354000E9497024CE068ED88E690E00E949702C4
:0403640080E0089598
:100368001F920F920FB60F9211240BB60F922F9374
:100378003F934F935F936F937F938F939F93AF9325
:10038800BF93EF93FF93E0910040F09101403097C5
:1003980009F0099582E080930D06FF91EF91BF91D6
:1003A800AF919F918F917F916F915F914F913F9105
:1003B8002F910F900BBE0F900FBE0F901F901895A6
:1003C8000E949102E0E0F7E083E0828311821786C1
:1003D80081E2838B86E9828B85E0808B8FE7848B33
:1003E800138E128E92E0908F848F13A212A290A384
:0803F80084A30E948B0208950A
:10040000E0E0F6E084E08183128213821482168693
:100410001386148682E08087118681E08583148AA2
:0E042000158A128A138A81E1808380E0089594
:10042E000E94A9000E945B020E947B020E9473023E
:10043E000E9482010E94E4010E9483020E94000237
:06044E000E946702089500
:1004540081E080930A06E0E0F6E0858580FFFDCF29
:100464008091100690911106929582958F7089273C
:060474009F708927089526
:10047A001F920F920FB60F9211248F9381E08093EF
:0E048A00AA008F910F900FBE0F901F90189533
:100498001F920F920FB60F9211248F9381E08093D1
:0E04A8000D068F910F900FBE0F901F901895AC
:1004B60040E068ED80EA90E00E949702E0EAF0E012
:0804C6001186108680E0089504
:1004CE0040E068ED80E191E00E949702E0E1F1E00A
:0804DE001282138280E00895F0
:1004E60040E068ED80E590E00E94970280E0089584
:1004F60040E068ED80E091E00E94970280E0089578
:10050600E0EBF0E0148282E88083128280E00895B6
:0C051600E0E0F7E08081816080830895C0
:0C052200E0E0F7E080818E7F8083089588
:0A052E001BBEFC0164BF408308956A
:0A0538000E9417020E942A02FDCF64
:040542000C94000015
:02000004008278
:090000000000000000C00800002F
:00000001FF
